:020000040800F2
:100000001806002045010008BF040008DD020008B2
:10001000BD0400082F0200080908000800000000C5
:100020000000000000000000000000008D05000836
:100030003102000800000000C10400084506000865
:100040005F0100085F0100085F0100085F01000810
:100050005F0100085F0100085F0100085F01000800
:100060005F0100085F0100085F0100085F010008F0
:100070005F0100085F0100085F0100085F010008E0
:100080005F0100085F0100085F0100085F010008D0
:100090005F0100085F0100085F0100085F010008C0
:1000A0005F0100085F0100085F0100085F010008B0
:1000B0005F0100085F0100085F0100085F010008A0
:1000C0005F0100085F0100085F0100085F01000890
:1000D0005F0100085F0100085F0100085F01000880
:1000E0005F0100085F0100085F0100085F01000870
:1000F0005F0100085F0100085F0100085F01000860
:100100005F0100085F0100085F0100085F0100084F
:100110005F0100085F0100085F0100085F0100083F
:100120005F0100085F0100085F0100085F0100082F
:10013000DFF80CD000F04AF800480047250F00080F
:10014000180600200648804706480047FEE7FEE7FD
:10015000FEE7FEE7FEE7FEE7FEE7FEE7FEE7FEE777
:1001600049060008310100082DE9F05F054600202E
:1001700092469B4688460646814640241BE0284618
:1001800041464746224600F042F853465A46C01AB6
:10019000914110D311461846224600F029F82D1A35
:1001A00067EB01084F4622460120002100F020F8AD
:1001B00017EB00094E41201EA4F10104DFDC484684
:1001C00031462A464346BDE8F09F0000064C074DE5
:1001D00006E0E06840F0010394E807009847103417
:1001E000AC42F6D3FFF7A8FFE013000800140008A4
:1001F000202A04DB203A00FA02F1002070479140E7
:10020000C2F1200320FA03F3194390407047202ADB
:1002100004DB203A21FA02F00021704721FA02F3B0
:10022000D040C2F120029140084319467047FEE7D2
:1002300070472DE9F0410022CC7804F00F03E4066A
:1002400001D58C7823430C784FF00F0714F0FF0F83
:100250004FF0010C1CD005680CFA02F40E88264001
:10026000A64211D1960007FA06F825EA080503FA16
:1002700006F848EA0505CE78282E02D0482E02D08E
:1002800002E0446100E00461521C082AE4D30560E6
:100290000A88FF2A1ED94568002202F108060CFAD6
:1002A00006F40E882640A64210D1960007FA06F8FA
:1002B00025EA080503FA06F848EA0505CE78282E4F
:1002C00000D14461CE78482E00D10461521C082A26
:1002D000E3D34560BDE8F08101617047FEE70000AF
:1002E0002DE9F041614CAE20207001220021204612
:1002F00000F0FEFC2027277001220021204600F09C
:10030000F7FC1026267001220021204600F0F0FCA8
:10031000B020207001220021204600F0E9FCC82016
:10032000207001220021204600F0E2FC002525700B
:1003300001220021204600F0DBFC26700122002172
:10034000204600F0D5FC40202070012200212046EC
:1003500000F0CEFC8120207001220021204600F018
:10036000C7FC7F20207001220021204600F0C0FC45
:10037000A120207001220021204600F0B9FCA62017
:10038000207001220021204600F0B2FCA82020703D
:1003900001220021204600F0ABFC3F20207001220A
:1003A0000021204600F0A4FCA4202070012200219E
:1003B000204600F09DFCD320207001220021204621
:1003C00000F096FC257001220021204600F090FCF0
:1003D000D520207001220021204600F089FCF02069
:1003E000207001220021204600F082FCD9202070DC
:1003F00001220021204600F07BFC222020700122F7
:100400000021204600F074FCDA2020700122002137
:10041000204600F06DFC12202070012200212046B1
:1004200000F066FCDB20207001220021204600F055
:100430005FFC277001220021204600F059FC8D202E
:10044000207001220021204600F052FC1420207070
:1004500001220021204600F04BFCAF2020702046F6
:10046000BDE8F0410122002100F042BC180000204C
:1004700038B50121102000F025F80420ADF8000067
:1004800010208DF8030003208DF802000A4C694605
:100490002046FFF7CEFE0821ADF800106946204641
:1004A000FFF7C7FE04212046FFF716FF082120466C
:1004B000FFF712FF38BD000000100140FEE7704753
:1004C00070470000054A002903D0916901439161FA
:1004D00070479169814391617047000000100240AC
:1004E00010B5264A516801F00C01254B002927D090
:1004F000042927D0082927D00360516801F0F001B2
:100500000909204B5C5C0168E1404160546804F4D7
:10051000E064240A1C5D21FA04F48460546804F445
:100520006054E40A1B5DD940C160526802F4404245
:10053000920B144B1B1F9A5CB1FBF2F1016110BDD1
:100540000360DAE70360D8E7516801F4701153687B
:1005500003F48033022404EB914133B153689B03CD
:1005600007D5094B59430160C7E7074B5943016061
:10057000C3E7034B59430160BFE70000001002408E
:1005800000127A000400002000093D00704700F0CE
:1005900001B800000CB500220192009227480168C2
:1005A00041F4803101604FF4A063016801F400312F
:1005B00000910199491C0191009911B90199994241
:1005C000F3D10168890302D50121009100E0009276
:1005D0000099012930D11A490A6842F010020A60D4
:1005E0000A6822F003020A600A6842F002020A6006
:1005F0004168416041684160416841F48061416007
:10060000416821F47C114160416841F4E811416086
:10061000016841F08071016001688901FCD5416881
:1006200021F003014160416841F0020141604168ED
:10063000C1F381010229FAD10CBD00000010024073
:10064000002002407047000010B50F48016841F0DB
:100650000101016041680D4A1140416001680C4A86
:1006600011400160016821F480210160416821F49A
:10067000FE0141604FF41F018160FFF788FF0549CB
:100680004FF00060086010BD001002400000FFF84D
:10069000FFFFF6FE08ED00E0002904D0818941F457
:1006A000005181817047818921F400518181704717
:1006B00010B586B001210420FFF704FF0121880353
:1006C000FFF700FF4FF40070ADF8140018208DF80C
:1006D000170003208DF81600144C05A92046FFF7DB
:1006E000A8FD2115ADF8141004218DF8171005A9E7
:1006F0002046FFF79EFD4FF4E13001900020ADF859
:100700000800ADF80A00ADF80C00ADF810000C20A0
:10071000ADF80E00064C01A9204600F013F80121A7
:100720002046FFF7B9FF06B010BD000000080140E9
:10073000003801400246002012880A4200D0012001
:100740007047000030B585B004460D46208A4CF64F
:10075000FF710840E98801432182A0894EF6F31118
:100760000840A9882A8911436A8902431143A1815B
:10077000A08A4FF6FF410840A9890143A18268463B
:10078000FFF7AEFE1D48844201D1039800E00298B5
:10079000A189090408D500EBC00101EB001029680C
:1007A0004900B0FBF1F007E000EBC00101EB0010E5
:1007B00029688900B0FBF1F06422B0FBF2F1090175
:1007C0000B096FF018056B4300EB8300A3891D0430
:1007D0004FF0320307D503EBC000B0FBF2F000F09E
:1007E0000700084306E003EB0010B0FBF2F000F056
:1007F0000F000843208105B030BD000000380140E3
:10080000C1F3080181807047FEE700000FB4054B7B
:1008100010B503A9044A029800F018F810BC5DF85E
:1008200014FB0000D10D00081400002002E008C8ED
:10083000121F08C1002AFAD170477047002001E05A
:1008400001C1121F002AFBD1704700002DE9FF4FA4
:100850008DB00F460546002606E025280BD0DDE9C1
:100860000F1290476D1C761C28780028F5D111B026
:100870003046BDE8F08F0024A246A1460122EC4993
:1008800000E0044315F8013F203B02FA03F0084260
:10089000F7D128782A2810D06FF02F022878A0F1FD
:1008A0003001092914D80AEB8A0102EB410144F016
:1008B000020400EB010A6D1CF0E701CF5FEA000AB9
:1008C00003D544F40054CAF1000A44F002046D1C3C
:1008D00028782E2817D115F8010F44F004042A288F
:1008E0000ED06FF02F022878A0F1300109290AD824
:1008F00009EB890102EB410100EB01096D1CF2E7F4
:1009000057F8049B6D1C28786C280FD006DC4C2807
:1009100017D068280DD06A2814D104E0742810D0AC
:100920007A280FD10DE044F400140AE044F4801456
:1009300001E044F440146978814202D104F5801446
:100940006D1C6D1C2A786E2A1FD00CDC632A31D0F6
:1009500004DC002A8BD0582A11D1A3E0642A68D085
:10096000692A0CD165E0732A2ED004DC6F2A73D07B
:10097000702A04D19BE0752A6FD0782A6ED0104679
:10098000DDE90F129047761C50E1C4F302500228B3
:1009900006D0032809D0042801CF09D0066045E11C
:1009A00001CFF117C0E9006140E101CF06803DE1D0
:1009B00006703BE117F8040B8DF8000000208DF85D
:1009C0000100EB46012003E057F804BB4FF0FF3075
:1009D00061074FF0000102D40DE008F101018846E3
:1009E00049450FDA8045F8DB1BF808100029F4D1DF
:1009F00008E008F1010188468142FADB1BF8081083
:100A00000029F6D1DDE90F23AAEB08008146214633
:100A100000F036F9304400EB080604E0DDE90F127F
:100A20001BF8010B9047B8F10108F7D22146484660
:100A3000F7E00A21C4F302534FF0000B0891022B98
:100A400004D001CFC117032B09D00AE0FF1D27F006
:100A50000707F7E8020108E032E01FE020E000B2FB
:100A6000C117042B01D140B2C117031E71F100035D
:100A700007DA4FF0000CD0EB0C006CEB01012D23DA
:100A800002E0230504D52B238DF82430012303E055
:100A9000E30701D02023F7E7984658E00A2110E049
:100AA00010210EE010204FF0000B08900CE01021F8
:100AB0004FF0000B44F004044FF00809089103E0E4
:100AC00008214FF0000B0891C4F30253022B04D00D
:100AD00001CF0021032B06D006E0FF1D27F00707FA
:100AE000F7E8020103E080B2042B00D1C0B24FF05E
:100AF000000823072BD5702A07D0DDF820C08CF022
:100B0000100C5CEA0B0C05D00EE040238DF824306D
:100B1000012308E050EA010306D030238DF8243089
:100B20008DF8252002239846DDF820C08CF0080CB3
:100B30005CEA0B0C0BD150EA010301D1630706D527
:100B400030238DF824304FF00108A9F10109582A0B
:100B500004D038A20B9208AA0A920BE03AA2F9E755
:100B60005B46089AFFF700FB0B9B9B5C0A9A521EA0
:100B70000A92137050EA0102F2D10A98ADEB00001C
:100B800000F1200B600702D524F4803401E04FF01F
:100B90000109D94502DDA9EB0B0000E0002000EBC4
:100BA0000B0141440890AAEB010AE00306D4DDE9F9
:100BB0000F232146504600F063F806444FF0000929
:100BC00008E009A911F80900DDE90F12904709F1C1
:100BD0000109761CC145F4DBE0030CD5DDE90F23E8
:100BE0002146504600F04CF8064404E0DDE90F12BF
:100BF00030209047761C0899481E08900029F5DCA3
:100C000008E00A980A990078491C0A91DDE90F1258
:100C10009047761CBBF10001ABF1010BF1DC2146E2
:100C20005046DDE90F2300F019F806446D1C1BE661
:100C300009280100303132333435363738396162B2
:100C40006364656600000000303132333435363776
:100C50003839414243444546000000002DE9F04147
:100C6000044600251E461746880404D405E039468C
:100C70002020B0476D1C641EF9D52846BDE8F081E0
:100C80002DE9F041044600251E469046C80301D5D3
:100C9000302700E02027880404D505E04146384687
:100CA000B0476D1C641EF9D52846BDE8F08110B52B
:100CB000044600F0F9F8204600F0CCF800F016F9F0
:100CC000044600F005F900F0B3F8204610BD70B5F9
:100CD00000244FF4803505E02046641CA84201D36F
:100CE000012070BD7820FFF7E2FF0028F4D170BD2D
:100CF0002DE9F04780460E46914600254FF47A775D
:100D000024E00DB1700716D100F0E2F8002400F0E5
:100D1000CBF8782000F09EF800F0E8F818B1641CD9
:100D2000A4B2BC42F3D3BC421BD0F0B200F092F8A4
:100D300000F0DCF8A8B918F8050000F08BF800F016
:100D4000D5F870B9761CB6B26D1CADB24D45D8D38E
:100D500000F0BEF8FFF7BBFF012802D00120BDE87C
:100D6000F08700F0B5F80020F9E700002DE9F04722
:100D700006460025154FA8464FF0100905F1B000B2
:100D80003870012200211148FFF7B2FF87F8008078
:100D9000012200210D48FFF7ABFF87F800900122E8
:100DA00000210A48FFF7A4FF00243E7001224021E1
:100DB0000648FFF79DFF641CE4B2802CF5D36D1C40
:100DC000EDB2082DDAD3BDE8F0870000180000204E
:100DD00070B50446064DE1B22846FFF711FD8021AB
:100DE0002846FFF7A7FC0028F9D0204670BD000078
:100DF0000038014008B501210420FFF763FB6020A3
:100E0000ADF8000003208DF8020014208DF80300D7
:100E100069460348FFF70DFA00F05AF808BD0000D4
:100E2000000801400020401CC0B20A28FBD37047D4
:100E300070B5074D40202860FFF7F4FF20242C6098
:100E4000FFF7F0FF281D0460BDE87040FFF7EABF20
:100E5000100801402DE9F04705460024DFF84490D2
:100E600020264FF04008A9F10407280602D5C7F84C
:100E7000008001E0C9F80080FFF7D4FF3E60FFF773
:100E8000D1FFC9F80060072C01D1C7F800806806BF
:100E9000050EFFF7C7FF641CE4B2082CE5D3BDE8DC
:100EA000F08700001408014070B508484024046031
:100EB00020250560FFF7B6FF044E361D3460FFF7AE
:100EC000B1FF3560BDE87040FFF7ACBF10080140CE
:100ED00070B5054840240460034D20202D1F286074
:100EE000FFF7A0FF2C6070BD1408014070B50C4CDA
:100EF00040202060FFF796FF20252560FFF792FF36
:100F0000074808380068400601D5012400E00024A5
:100F10000348001D0560FFF785FF204670BD0000F7
:100F200010080140FFF7A4FAFFF7C2FBFFF762FFCA
:100F300006A0FFF76BFCFFF7D3F9FF20FFF716FFC2
:100F4000F020FFF713FF00F011F8FEE765657072FF
:100F50006F6D20C8EDBCFEC4A3C4E2693263B2E287
:100F6000CAD4C0FDB3CC200D0A0000002DE9F04723
:100F700000250026184FDFF86480A9464FF0100ABC
:100F800006F1B0003870012200211348FFF7B0FECF
:100F900087F80090012200210F48FFF7A9FE87F88B
:100FA00000A0012200210C48FFF7A2FE00242846E1
:100FB0006D1C18F800003870012240210648FFF728
:100FC00097FE641CE4B2802CF1D3761CF6B2082E96
:100FD000D6D3BDE8F087000018000020E00F00081D
:100FE00000060AFE0AC600E000F000F8000000005B
:100FF0000000FE7DBBC7EFEFEFEFEFEFEFC7BB7D6C
:10100000FE000000000000000000000000000000E2
:1010100000000000000000000000000000000000D0
:1010200000000000000000000000000000000000C0
:1010300000000000000000000000000000000008A8
:101040000CFEFE0C082060FEFE60200000007848C8
:10105000FE82BABA82BABA82BABA82BABA82FE003A
:101060000000000000000000000000000000000080
:101070000000000101010101010101010101010163
:101080000000000000000000000000000000000060
:101090000000000000000000000000000000000050
:1010A0000000000000000000000000000000000040
:1010B0000000000000000000000000000000000030
:1010C0000000000000000000000000000000000020
:1010D0000000000000000000000000000000000010
:1010E0000000000000000000000000000000000000
:1010F0000000000000000000000000000000FEFFF3
:10110000030303030303030303FFFF0000FEFF03C6
:101110000303030303030303FFFE00000000C0C03A
:10112000C000000000FEFF030303030303030303E7
:10113000FFFE0000FEFF030303030303030303FF9B
:10114000FE000000000000000000000000000000A1
:10115000000000000000000000000000000000008F
:10116000000000000000000000000000000000007F
:101170000000000000000000000000000000FFFF71
:10118000000000000000000000FFFF0000FFFF0C57
:101190000C0C0C0C0C0C0C0CFFFF00000000E1E12F
:1011A000E100000000FFFF00000000000000000060
:1011B000FFFF0000FFFF0C0C0C0C0C0C0C0C0CFFC8
:1011C000FF00000000000000000000000000000020
:1011D000000000000000000000000000000000000F
:1011E00000000000000000000000000000000000FF
:1011F00000000000000000000000000000000F1FC1
:101200001818181818181818181F0F00000F1F1892
:1012100018181818181818181F0F000000000000E0
:1012200000000000000F1F181818181818181818B8
:101230001F0F00000F1F1818181818181818181F5B
:101240000F0000000000000000000000000000008F
:10125000000000000000000000000000000000008E
:10126000000000000000000000000000000000007E
:10127000000000000000000000000000000000006E
:101280000000000000E2928A8600007C8282827C5C
:1012900000FE008292AAC60000C0C0007C8282824A
:1012A0007C0000020202FE0000C0C0007C8282823C
:1012B0007C0000FE000000000000000000000000B4
:1012C000000000000000000000000000000000001E
:1012D000000000000000000000000000000000000E
:1012E0000024A42E24E4242EA424000000F84A4C58
:1012F00048F8484C4AF800000000000000000000D8
:1013000000000000000000000000000000000000DD
:1013100000000000000000000000000000000000CD
:1013200000000000000000000000000000000000BD
:1013300000000000000000000000000000000000AD
:10134000000000000000000000000000C02010109D
:10135000101020C00000C0201010101020C000008D
:1013600000120A07027F02070A120000000B0A0A95
:101370000A7F0A0A0A0B00000000000000000000BB
:10138000000000000000000000000000000000005D
:10139000000000000000000000000000000000004D
:1013A000000000000000000000000000000000003D
:1013B000000000000000000000000000000000002D
:1013C0000000000000000000000000001F2040405E
:1013D0004050205F80001F2040404050205F800030
:1013E0000014000800000020180000002C0800086D
:1013F0001814000818000020000600003C0800082F
:1014000002040608000000000102030401020304B4
:081410000607080900000000B6
:0400000508000131BD
:00000001FF
